:020000040800F2
:10000000000008248DA50008E1A50008E1A500086E
:10001000E1A50008E1A50008E1A500080000000036
:10002000000000000000000000000000E1A5000842
:10003000E1A5000800000000E1A500081B960008EB
:10004000E1A50008E1A50008E1A50008E1A5000878
:10005000E1A50008E1A50008499700084F970008AE
:10006000559700085B97000861970008E52600088F
:10007000F1260008E1A50008FD2600080927000870
:10008000E1A50008E1A50008E1A50008E1A5000838
:10009000E1A50008E1A50008E1A5000867970008B0
:1000A000E1A5000859910008E1A500086D9100083C
:1000B0007191000885910008999100082134000889
:1000C0002D3400083934000845340008E1A5000843
:1000D000E1A50008F5A100080DA2000829A200086A
:1000E0008F970008E1A50008000000002192000899
:1000F000E9910008359200080D920008E1A500087A
:10010000E1A50008E1A50008AD910008E1A50008FF
:1001100045A200085DA20008C1910008D591000821
:10012000E1A50008E1A50008E1A50008E1A5000897
:10013000E1A50008E1A50008E1A50008E1A5000887
:1001400000000000000000000000000000000000AF
:10015000E1A50008E1A50008E1A5000875A20008D6
:10016000513400085D340008E1A50008E1A500084D
:10017000E1A50008E1A50008E1A50008E1A5000847
:10018000E1A50008E1A50008A5A20008BDA200089D
:10019000E1A50008E1A50008E1A50008E1A5000827
:1001A000E1A50008E1A50008E1A50008E1A5000817
:1001B000E1A50008E1A50008E1A5000869340008F0
:1001C00085340008E1A50008E1A50008E1A50008C4
:1001D000E1A50008E1A50008E1A50008E1A50008E7
:1001E000E1A50008E1A50008E1A50008E1A50008D7
:1001F000E1A50008E1A50008E1A50008E1A50008C7
:10020000E1A50008E1A50008E1A50008E1A50008B6
:10021000499200085D92000871920008E1A500086B
:10022000E1A50008E1A50008E1A500080000000024
:10023000E1A50008E1A5000800000000E1A5000814
:10024000E1A50008E1A50008E1A50008E1A5000876
:10025000E1A50008E1A50008E1A50008E1A5000866
:10026000E1A50008E1A50008E1A50008E1A5000856
:10027000E1A50008E1A500088DA20008000000002B
:10028000E1A50008E1A50008E1A5000800000000C4
:0802900000000000E1A50008D8
:1002980010B5054C237833B9044B13B10448AFF3B8
:1002A80000800123237010BD4C01002400000000D1
:1002B800A0AE000808B5034B1BB103490348AFF3D0
:1002C800008008BD0000000050010024A0AE000816
:1002D80080ED000A704700004BF680313022054857
:1002E80008B500F067F804490248BDE8084000F086
:1002F800D1B800BF00000024D9020008014800F06E
:10030800DBB800BF000000240623084A137082F8F7
:100318004130074A137082F84130064A137082F858
:100328004130054A137082F8413070478601003029
:100338000401003082000030000000301C4B2DE921
:10034800F3471C6880460D4617466CB300264FF0ED
:10035800000ABE4225D0D8F8003001A8CDF804A084
:100368004FEA860903EB8603013693ED000AA0479E
:100378002B68019A4B441A606B684B44C3F800A081
:10038800E7E7D8F8002002EB830210682A6802EB3E
:10039800830210606A6802EB830201331160BB427A
:1003A800EFD102B0BDE8F08723460021F7E700BF90
:1003B800680100244BF68033002918BF0B46002A39
:1003C80070B508BF30220446051F00F11406ADF5CC
:1003D800A96D0365A0F8542055F8040F00210AF010
:1003E800FDF8B542F8D104F1240655F8040F0221AE
:1003F8000AF0F4F8AE42F8D1A06A02210AF0EEF849
:10040800E06A02210AF0EAF8206B01210AF0E6F816
:10041800206B01210AF04CF9606B01210AF0DEF82B
:100428000121606B0AF044F90AF0B4F90546A06AA4
:100438000AF074F9421EE5655342E06A534184F8B4
:10044800593084F8583084F85A300AF067F9411E58
:10045800226D68464B42A5674B410C4984F87530BC
:1004680084F8743084F87630094B9A4214BF032319
:100478000423002200F0F8F8B4F85410034800F000
:10048800CBF801200DF5A96D70BD00BF5002002406
:100498000077010008B5054B196029B104480549E2
:1004A80000F0AAF8012008BD0846FCE7680100240E
:1004B80050020024450300082DE9F84306464FF092
:1004C80000080AF067F9054606F12407344606F1E4
:1004D8002C0957F8040F0AF021F9431EB6F89020AA
:1004E8005842584194F85830834218BFE565E36D87
:1004F80018BF84F85800EB1A934230D394F8583058
:1005080094F859209A422AD0012284F8593083B9A4
:10051800E16EB6F89400691A84F860206566814235
:1005280084F8683002D894F86920013284F8692088
:1005380013E094F8691084F861200229E5660BD16C
:10054800616EB6F89200691A884294BF84F87220E6
:1005580084F871200022E9E7FCD884F85A3094F82E
:1005680059306BB994F8683053B9636EB6F8922075
:10057800EB1A934222BF012384F8703084F8683064
:1005880094F86930012B08D1E36EB6F89420EB1A81
:10059800934284BF002384F869304F4584F8608013
:1005A80084F8618004F11C0493D1BDE8F88300004D
:1005B8000623084A137082F84130074A137082F8FC
:1005C8004130064A137082F84130054A137082F8A8
:1005D800413070478E0300300C0300308A0200302F
:1005E80008020030002070474FF4E0630A300380AF
:1005F80005238370FFF7F6BF043001F092BA08B5FF
:10060800043001F079FAD0ED007AF8EE677AFCEE62
:10061800E77A17EE900A08BD38B5051D04462DED9A
:10062800028B284601F06BFA284601F076FA20463C
:10063800B0EE408AFFF7E3FF07EE900AF8EE677A1C
:1006480088EE277ABDEC028B84ED007A38BD022152
:10065800202008B509F0C2FF20200AF05FF8B0FAA0
:1006680080F0400908BD00002DE9F043052B0D4638
:1006780090461E46044628BF03264FF0010900276E
:100688002DED028B9FB002F027FFA5F8088001F03E
:10069800E9FB02F0B9F85E4B28460E960B9303F17E
:1006A8000073CDF8449003F540730A970C934FF408
:1006B8004173CDE90F97ADF83430FFF7C8FF4845CF
:1006C80040F092800823ADF808000390514A0DEBE2
:1006D80003018DF80A700493CDE9120705A801F00B
:1006E80005FBB5F908300AA902A8052B02BF0023AB
:1006F8000122CDE912230023CDE9023302F04EF89E
:10070800B5F90830052B03D1424905A801F06CFA68
:10071800B5F90830042B15D10123002214A903A828
:100728001D9314931896ADF85C20CDE919333A4B14
:10073800159303F1012303F57D03CDE91B221693DD
:1007480002F02CF83023CDE90536B5F908302E1D16
:10075800042B53D140F60163ADF80430019801F041
:10076800EFF94FF07C5305A930460793DDE90223E2
:1007780001F0A4F92846FFF737FF04F1700204F5E9
:10078800F871264B136120329142FBD1C4F8003234
:100798004FF40072C4F8203204F2F620C4F8403254
:1007A800C4F86032C4F8C432C8231D49C4F8EC3216
:1007B8000AF0C2FA304601F0B0F92846B0EE408A95
:1007C800FFF71DFF07EE900A41462046F8EE677ACC
:1007D80088EE270A85ED000A00F010FC20461FB0BD
:1007E800BDEC028BBDE8F08340F60133ADF8003074
:1007F8000098CDE9127901F0A3F972E74FF07E5322
:10080800029A05A93046079301F04AF9B2E700BFFA
:10081800040204046C010024000106090820803A3F
:10082800B8AE000806230C4A0C210C48137082F855
:1008380041300B4A137082F841300A4A137082F82B
:100848004130094A137082F841300022074B5A6040
:100858000B2202F03DB800BF960500306C01002461
:1008680014050030920400301004003050020024B7
:10087800014802F0A7B800BF6C01002470B52DED47
:10088800028BB0EE408A044684B0022502231B2264
:100898000121012601F0A4FFB0EE480A04F110007E
:1008A80002231C22012101F09BFFB0EE480A04F547
:1008B8001C700D2319221A210095DFED1B8ACDE942
:1008C800015501F01BFB04F5227012231322142199
:1008D800009601F00FFC04F28D2017231822112135
:1008E800009601F007FC0023F0EE680A04F170009E
:1008F800B0EE480A1A46C62101F060FA0023F0EE6D
:10090800680AC021B0EE480A1A4604F1900001F0C6
:1009180055FAC4F80855C4F80055C4F8FC5404B096
:10092800BDEC028B70BD00BF6F12033B30B50225D2
:10093800044600230B220C2100F51C702DED028BC0
:1009480085B0B0EE408ADFED2E8A0095CDE90155DD
:1009580001F0D4FA04F52570B7EE000A002314223A
:10096800012101F03DFF04F52970B7EE000A0023CC
:100978001322012101F034FF0423F0EE680A04F188
:100988007000B0EE480AC4F8F834C4F808350122FB
:100998000023C021C4F8045501F010FAF0EE680AEB
:1009A800B0EE480A04F1900000230122C12101F0B1
:1009B80005FAF0EE680AB0EE480A04F1B000002328
:1009C8000122C62101F0FAF9F0EE680AB0EE480AF1
:1009D8000023012204F1D000C32101F0EFF9012125
:1009E800172009F0FBFD0121172009F0F7FD01216F
:1009F800112005B0BDEC028BBDE8304009F0EEBD1A
:100A08006F12033B70B5C0E90023049B0446062619
:100A1800C3600B7803724B784372FF2380F8203051
:100A28000023191120689A0001EB811192B24654F3
:100A380003F00F002568013301EB8000202B0544EB
:100A4800A5F80120A5F8032065686E546168014483
:100A5800A1F80120A1F80320E3D104F11005217ABF
:100A6800094A41F04001284601F060FB284601F0A0
:100A7800A6FB617A284641F0400101F05CFB28465C
:100A8800BDE8704001F08DBB4C070024DFED1C7AF7
:100A980020EE270A13B5B5EEC00AF1EE10FA2CD4F1
:100AA800B4EEE70AF1EE10FAD8BFF0EE407AFCEEA9
:100AB800E77A0268CDED017A9DF8043000EB430334
:100AC8005C8CC1F3071301F00F0103EB831303EBF5
:100AD80081031A44B2F80130C3F30B03E118C1F3E0
:100AE8000B01A2F8031040F6FE718C4288BF43F454
:100AF8008053A2F8013002B010BDDFED027AD6E7CC
:100B080000007F4300000000072930B504460D4669
:100B18002DED028BF0EE608A87B0B0EE418A29D8BD
:100B2800B0F90C35022B25D1144A6B4604F53574FF
:100B38009068D168124A03C310685168114A03C308
:100B48001068516803C305F1180320460DEB03052F
:100B580015F8181CFFF79AFFB0EE680A15F8101C74
:100B68002046FFF793FFB0EE480A15F8081C204608
:100B7800FFF78CFF07B0BDEC028B30BDB8B00008A2
:100B880058B1000861B10008032907B50FD8B0F9BA
:100B98000C35022B0BD1074B00F53570019301F191
:100BA80008030DEB030111F8041CFFF76FFF03B0F6
:100BB8005DF804FB0F191A1B072A08B50B461146E6
:100BC80008D8B0F90C25032A04D123B900F53570EB
:100BD800FFF75CFF08BD012BFCD1C1F10F01F5E760
:100BE800072908B508D8B0F90C35032B04D1103102
:100BF80000F53570FFF74AFF08BD0000B0F90C3565
:100C0800022B70B504462DED028B1ED100259FEDF9
:100C18001E8ADFED1D0AE9B20135B0EE481AB0EEC2
:100C2800600A2046FFF770FF082DF2D100259FEDDE
:100C3800168AE9B20135B0EE480A2046FFF7A4FF4C
:100C4800042DF6D1BDEC028B70BD032BFAD1002523
:100C58009FED0D8AEEB2B0EE480A002120463246DA
:100C68000135FFF7A9FFB0EE480A324601212046B8
:100C7800FFF7A2FFB0EE480A31462046FFF7B0FF63
:100C8800082DE7D1DEE700BF00000000F8B5D0E985
:100C9800001204460023C0E9002101EB8300B0F8EC
:100CA800035002EB83000133A0F80350102BF4D15A
:100CB800002301EB8300B0F8445002EB83000133BA
:100CC800A0F84450102BF4D1FF2304F1100784F846
:100CD800203094F92050012D08DC01356DB2022D29
:100CE80084F8205003D1FF2384F82030F8BD63191D
:100CF800002605EB85153846197A41F0400101F0C8
:100D08001AFA05EB86036268F1B201361A443846CE
:100D1800B2F80330B2F8012001F086FA102EF0D1B3
:100D2800D7E708B5B0F80C35023B9BB2012B03D8C6
:100D380000F53570FFF7AAFF08BD00000C23624AD2
:100D480070B52DED028B86B0C0F80035062302255C
:100D580007260446C0F808354FF48073B0EE408A81
:100D680005A9ADF814304FF0FF33C0F8FC6400F566
:100D78003570C0F824520093544BFFF743FE2046C9
:100D8800FFF73CFF2046FFF7CCFFB0EE480A04F51A
:100D98001C700E231B221C210095DFED4D8ACDE926
:100DA800015501F0ABF80023F0EE680A04F1700079
:100DB800B0EE480A1A46C12101F000F80023F0EE0F
:100DC800680A04F19000B0EE480A1A46C42100F0FF
:100DD800F5FF0023F0EE680A04F1B000B0EE480A0F
:100DE8001A46C22100F0EAFF0023F0EE680A04F177
:100DF800D000B0EE480A1A46C52100F0DFFF0023F4
:100E0800F0EE680A04F1F000B0EE480A1A46C32171
:100E180000F0D4FF0023F0EE680A04F58870B0EE05
:100E2800480A1A46C62100F0C9FF0023F0EE680AF6
:100E380004F52D70B0EE480A1A46C02100F0BEFF36
:100E4800B0EE480A2B4620460822012101F0C8FCD2
:100E5800B0EE480A2B4604F110000922012101F0E6
:100E6800BFFCB0EE480A2B4604F120000A220121FB
:100E780001F0B6FCB0EE480A2B4604F130000D2212
:100E8800012101F0ADFCB0EE480A2B4604F1400008
:100E98001922012101F0A4FCB0EE480A2B4604F106
:100EA80050001A22012101F09BFCB0EE480A2B46A3
:100EB8003246012104F1600006B0BDEC028BBDE8AA
:100EC800704001F08DBC00BF9A0600301806003053
:100ED8006F12033B70B5022504461E2200212B46E3
:100EE8001B262DED028BB0EE408A84B0C0F8FC546E
:100EF800C0F8F85401F074FCB0EE480A2B4604F12F
:100F080010001D22002101F06BFC4FF40073384AD9
:100F180003A9ADF80C304FF0FF3304F535701A25EE
:100F28000093344BFFF76EFD2046FFF767FE20461F
:100F3800FFF7F7FE0121152009F050FB01211420CD
:100F480009F04CFB0121132009F048FB0023DFEDD9
:100F58002A0AB0EE480A1A4604F17000C12100F0CE
:100F68002DFF1C200121C4F81465C4F81005C4F82D
:100F78002C05C4F8185509F031FB30460121C4F896
:100F8800306509F02BFB28460021C4F8345509F0D8
:100F980025FB1022002104F21C5009F08FFEB0EE50
:100FA800480A04F5F870C22100F030FFB0EE480A94
:100FB80004F50470C32100F029FFB0EE480A04F5D7
:100FC8000C70CA2100F022FFB0EE480A04F5147034
:100FD800C92100F01BFF0121172009F0FFFA0121A8
:100FE800162004B0BDEC028BBDE8704009F0F6BADB
:100FF8009E0700301C0700306F12033B0223A0F845
:101008000C150139C0F8F8340023C0F80835C0F8C9
:101018000435C0F8FC34C0F8003503290BD8DFE8E4
:1010280001F002040608FFF729BCFFF787BEFFF7A7
:1010380051BFFFF77BBC70470623084A137082F83C
:101048004130074A137082F84130064A137082F81B
:101058004130054A137082F8413070479E070030CE
:101068001C0700309A06003018060030D0E9052326
:1010780022B1002B0CBF022004207047181E18BF95
:1010880001204000704700002DE9F04FC04E89B0A4
:1010980080468A46A6F11409304600AF154601F08D
:1010A8008DFB04464846FFF7E1FF834630B3D9F885
:1010B800043064699E46002B00F07881AB00EB4653
:1010C800012C03F1070323F00703ADEB030D68467A
:1010D800ADEB030D6E463BD0022C13D0002C65D02F
:1010E8002A46314673469847012C00F0C280022CEC
:1010F80000F08280002C00F0F780DD462437BD46E2
:10110800BDE8F08F99ED0B7A02460023DFEDA16A66
:1011180008F1040CAB4202F10802E1D258F823109E
:1011280007EE901A5CF823100233F8EEE77A67EEC0
:10113800A67A67EE877A42ED027A07EE901AF8EE01
:10114800E77A67EEA67A67EE877A42ED017AE1E7F9
:1011580099ED0B7A01460022DFED8F6A08F1040C45
:10116800AA4201F10801BBD258F8223083F40003E7
:10117800A3F5000307EE903A5CF822300232F8EE4D
:10118800E77A83F40003A3F5000367EEA67A67EE17
:10119800877A41ED027A07EE903AF8EEE77A67EE41
:1011A800A67A67EE877A41ED017AD9E799ED0B7A4D
:1011B80002462346DFED796A08F10401AB4202F1E9
:1011C80008028DD238F923C007EE90CA31F923C03E
:1011D8000233F8EEE77A67EEA67A67EE877A42ED91
:1011E800027A07EE90CAF8EEE77A67EEA67A67EE1B
:1011F800877A42ED017AE1E799ED046A00239FEDD1
:10120800687A0AF10402DFED676AAB42BFF475AF92
:10121800D6ED007A66EE277AF4EEC77AF1EE10FA88
:1012280040F2B080F4EEE67AF1EE10FAA8BFF0EEE4
:10123800667AFEEEE07A17EE901AD6ED017A66EE3F
:10124800277A4AF82310F4EEC77AF1EE10FA40F242
:101258009C80F4EEE67AF1EE10FAA8BFF0EE667A1A
:10126800FEEEE07A083617EE901A42F823100233A1
:10127800CBE799ED046A00239FED497A0AF104024D
:10128800DFED486AAB42BFF438AFD6ED007A66EEC0
:10129800277AF4EEC77AF1EE10FA6DD9F4EEE67A11
:1012A800F1EE10FAA8BFF0EE667AFEEEE47A17EED9
:1012B800901AD6ED017A66EE277A4AF82310F4EEF2
:1012C800C77AF1EE10FA5AD9F4EEE67AF1EE10FA8E
:1012D800A8BFF0EE667AFEEEE47A083617EE901AAA
:1012E80042F823100233CDE799ED046A0AF10402AB
:1012F8009FED2B7ADFED2B6ADFED2B5AAC42BFF462
:10130800FCAED6ED007A66EE277AF4EEC77AF1EEF7
:1013180010FA2BD9F4EEE67AF1EE10FAA8BFF0EE47
:10132800667A67EEA57AFDEEE77A17EE903AD6ED83
:10133800017A66EE277A1BB24AF82430F4EEC77AAF
:10134800F1EE10FA15D9F4EEE67AF1EE10FAA8BF2C
:10135800F0EE667A67EEA57A0836FDEEE77A17EEC4
:10136800903A1BB242F824300234C7E7F0EE477ACD
:10137800D7E7F0EE477AEDE7F0EE477A95E7F0EE3B
:10138800477AA8E7F0EE477A53E7F0EE477A67E73F
:10139800740200240000003000000034000000380F
:1013A80004FF7FBF04FF7F3F00FEFF4656F8143C52
:1013B8003B61002B3FF4A2AE301DC7F80CD001F002
:1013C8000BFABBF1020F4FEA8B01F86114BF6A00F8
:1013D8002A460731BBF1020F4FEA820321F00701C9
:1013E80003F1070323F00703ADEB030DB2FBFBF298
:1013F800C7F814D0ADEB030D7B69EC46ADEB010DDE
:1014080003EB82036846ADEB010D7969BB616E465B
:1014180043600CEB820301604FEA8201CDF800C003
:10142800019308D0BA690B440A4402930B448260C2
:101438000A440393C260012C6BD0022C12D0002CFA
:1014480000F0D0806A0831463B699847012C00F0CB
:10145800AB81022C00F02181002C00F02082D7F80B
:101468000CD04BE6DFF834E30021FA69DEF82030CF
:101478009FEDC77A03EB820C08F104037B60A94255
:10148800E0D24B087A69DEED0B6ABBF1020F02EB82
:1014980083024FEA8309BA6058F8212007EE902AA0
:1014A800BA68F8EEE77A67EE877A67EEA67AC2ED51
:1014B800007ABA6902EB83037A6852F8212007EEB2
:1014C800902ABA60F8EEE77A67EE877A67EEA67A2E
:1014D800C3ED007A19D0DCED007A8268F8EEE77A7D
:1014E800C3684A444B4467EE877A67EEA67AC2ED32
:1014F800007ADCED017ADEED0B6AF8EEE77A67EE4A
:10150800877A67EEA67AC3ED007A02310CF1080CEF
:10151800B5E7DFF888C20022FB69DCF820109FEDF0
:101528009D7A01EB830108F104037B60AA4289D20A
:101538004FEA52097B69DCED0B6ABBF1020F03EB42
:1015480089034FEA890EBB6058F8223083F4000300
:10155800A3F5000307EE903ABB68F8EEE77A67EE6A
:10156800877A67EEA67AC3ED007ABB6903EB89092F
:101578007B6853F8223083F40003A3F5000307EED9
:10158800903AF8EEE77A67EE877A67EEA67AC9EDC1
:10159800007A24D0836803EB0E090B6883F40003F8
:1015A800A3F5000307EE903AC368F8EEE77A9E4485
:1015B8004B6867EE877A83F40003A3F5000367EEB0
:1015C800A67AC9ED007A07EE903ADCED0B6AF8EEE0
:1015D800E77A67EE877A67EEA67ACEED007A02326E
:1015E8000831A3E7DFF8B4E12146FA69DEF82030D4
:1015F8009FED697A03EB820C08F104037B60A94232
:10160800BFF420AF4B087A69DEED0B6ABBF1020F1D
:1016180002EB83024FEA8309BA6038F9212007EE0A
:10162800902ABA68F8EEE77A67EE877A67EEA67AC4
:10163800C2ED007ABA6902EB83037A6832F9212095
:1016480007EE902AF8EEE77A67EE877A67EEA67AD1
:10165800C3ED007A1DD0BCF90030826807EE903ADD
:10166800C3684A44F8EEE77A4B4467EE877A67EE38
:10167800A67AC2ED007ABCF90420DEED0B6A07EE0B
:10168800902AF8EEE77A67EE877A67EEA67AC3EDD6
:10169800007A02310CF1080CB1E7404B0AF104045E
:1016A8009FED3F7A986A93ED046AFB69DFED3D6A26
:1016B80000EB83000023AB42BFF4D1AE5A08316877
:1016C80001EB82014FEA820CD1ED007A66EE277AAF
:1016D800F4EEC77AF1EE10FA40F27F81F4EEE67A82
:1016E800F1EE10FAA8BFF0EE667A7168FEEEE07AC5
:1016F800614417EE902AD1ED007A4AF8232066EE6D
:10170800277AF4EEC77AF1EE10FA40F26981F4EE26
:10171800E67AF1EE10FAA8BFF0EE667AFEEEE07A0D
:10172800BBF1020F17EE902A44F823202DD0B168A0
:101738006144D1ED007A66EE277AF4EEC77AF1EECD
:1017480010FA40F25081F4EEE67AF1EE10FAA8BFF2
:10175800F0EE667AF268FEEEE07A6244C0ED007A56
:10176800D2ED007A66EE277AF4EEC77AF1EE10FA37
:1017780040F23C81F4EEE67AF1EE10FAA8BFF0EE02
:10178800667AFEEEE07AC0ED017A0233083092E71D
:10179800000000300000003400000038600200241F
:1017A80004FF7FBF04FF7F3F924B0AF104049FEDC3
:1017B800927A986A93ED046AFB69DFED906A00EB10
:1017C80083000023AB42BFF44AAE5A08316801EBEC
:1017D80082014FEA820CD1ED007A66EE277AF4EEA8
:1017E800C77AF1EE10FA40F2EC80F4EEE67AF1EE08
:1017F80010FAA8BFF0EE667A7168FEEEE47A6144EA
:1018080017EE902AD1ED007A4AF8232066EE277A5F
:10181800F4EEC77AF1EE10FA40F2D680F4EEE67AEA
:10182800F1EE10FAA8BFF0EE667AFEEEE47ABBF1AC
:10183800020F17EE902A44F823202DD0B168614496
:10184800D1ED007A66EE277AF4EEC77AF1EE10FA57
:1018580040F2BD80F4EEE67AF1EE10FAA8BFF0EEA1
:10186800667AF268FEEEE47A6244C0ED007AD2ED60
:10187800007A66EE277AF4EEC77AF1EE10FA40F2B3
:10188800A980F4EEE67AF1EE10FAA8BFF0EE667AD7
:10189800FEEEE47AC0ED017A0233083092E7554B48
:1018A8000AF104009FED547A996A93ED046AFB6982
:1018B800DFED526A01EB8301DFED515AAC42BFF410
:1018C800CEAD6308326802EB83024FEA830CD2ED97
:1018D800007A66EE277AF4EEC77AF1EE10FA64D948
:1018E800F4EEE67AF1EE10FAA8BFF0EE667A67EE4B
:1018F800A57A72686244FDEEE77A17EE903AD2ED67
:10190800007A66EE277A1BB24AF82430F4EEC77ADA
:10191800F1EE10FA4CD9F4EEE67AF1EE10FAA8BF1F
:10192800F0EE667A67EEA57ABBF1020FFDEEE77A74
:1019380017EE903A1BB240F8243033D0B2686244B4
:10194800D2ED007A66EE277AF4EEC77AF1EE10FA55
:1019580031D9F4EEE67AF1EE10FAA8BFF0EE667A25
:1019680067EEA57AFDEEE77A17EE903A1BB20B60A8
:10197800F3686344D3ED007A66EE277AF4EEC77A0B
:10198800F1EE10FA1AD9F4EEE67AF1EE10FAA8BFE1
:10199800F0EE667A67EEA57AFDEEE77A17EE903AF2
:1019A8001BB24B600234083188E7F0EE477A9EE7B5
:1019B800F0EE477AB6E7F0EE477AD1E7F0EE477AED
:1019C800E8E7F0EE477A17E7F0EE477A2DE7F0EE12
:1019D800477A46E7F0EE477A5AE7F0EE477A84E628
:1019E800F0EE477A9AE6F0EE477AB3E6F0EE477AF9
:1019F800C7E600BF6002002404FF7FBF04FF7F3FEB
:101A080000FEFF467FB5044601A8089E04F10805BC
:101A180080E80E0007C885E80B00D4ED047AF5EEDF
:101A2800C07AF1EE10FA02DC012004B070BDF7EEC6
:101A3800006A86EEA77A84ED0B7A002EF4D0204651
:101A480040F8146F00F0BAFE03690020E360024B0F
:101A5800E361024B6362E8E7202800302008003089
:101A6800836937B504460D4643B1836800221830B0
:101A780000929B000269816800F0A2FEA36804F14D
:101A88001400064A9B000092626AE16900F098FE21
:101A980000202560606003B030BD00BF91100008D1
:101AA80007B503460448186000920EC9FFF7AAFF5D
:101AB80003B05DF804FB00BF60020024F0B50B4DD5
:101AC80087B017461E46056003AC07C984E80700BF
:101AD8000097284694E80E00FFF794FF044B002077
:101AE800AE612B62034BAB6207B0F0BD600200240D
:101AF8002038003020180030006808307047B1F5F1
:101B0800806F03680A4628BF4FF48062B1F5806F82
:101B18009A6094BF0020012070470068143000F0DC
:101B280058BE08B50068FFF79BFF002008BD0000FD
:101B3800024B0022C3E90522704700BF600200245F
:101B48001FB50124ADF80C0003A8ADF80E4000F055
:101B5800FFF9214603A800F0ABFA204600F080FE0A
:101B6800002103A800F0A4FA204600F079FE2146DF
:101B780003A800F09DFA04B010BD70B50E460179B7
:101B8800044600684908154600F052FF20683146AF
:101B980003681B6898470021206800F0F4FF0122C1
:101BA80021792068D14001F064F8206803685B69F6
:101BB80098472870002070BD70B50E46017904461C
:101BC80000684908154600F033FF2068314603686D
:101BD8001B6898472068294603681B68984720684F
:101BE80001F04CF8002070BD37B504460846216066
:101BF8002E4900F0FBFE20681B221A230021C0E9B1
:101C0800212301F001F98C230DF1050240212371F4
:101C18002046FFF7B2FF9DF805204021204602F03C
:101C28007F02FFF7C9FF042000F01AFE0DF105023C
:101C380040212046FFF7A1FF9DF8052040212046BE
:101C480002F0BF02FFF7B8FF042000F009FE0DF113
:101C5800060243212046FFF790FF0DF107024821B5
:101C68002046FFF78AFF9DF807509DF8062043217C
:101C780045F00105204642F00102FFF79DFF2A4684
:101C880048212046FFF798FF0DF105024021204624
:101C9800FFF773FF9DF805204021204602F0CF0290
:101CA800FFF78AFF002003B030BD00BF801A06008E
:101CB80070B5154604460E46017C006800F0B0FE7B
:101CC8002068C5F3002343EA46010368C9B21B68CC
:101CD80098472068E9B203681B689847206800F0B5
:101CE800CDFF0A2000F0BCFD002070BD38B50346CA
:101CF8000446154643F8042B07C983E8070028461D
:101D08002D4900F073FE20681B2274230021C0E9CE
:101D1800212301F079F8A37900220F211A332046F4
:101D28002374FFF7C5FF172200212046FFF7C0FFE5
:101D3800172201212046FFF7BBFF0022022120467F
:101D4800FFF7B6FF002203212046FFF7B1FF12225A
:101D580004212046FFF7ACFF002205212046FFF7AB
:101D6800A7FF237906212046002B14BF62224222B6
:101D7800FFF79EFF07212046D4E902231A4363791F
:101D880042EA4312237983F0010342EA8312D2B272
:101D9800FFF78EFF002208212046FFF789FF002267
:101DA80009212046FFF784FF012209212046FFF779
:101DB8007FFF002038BD00BF801A0600F8B50D4629
:101DC800044600211E46284617462DED028BB0EE2C
:101DD800408AF0EE608A08F001FCF6EE007A0023F3
:101DE80084ED028A28EE288A2570E360A36128EE34
:101DF800278A2777F7EE007A667787EE887AC4ED28
:101E0800057ABDEC028B84ED017AF8BD38B50D4634
:101E18000446002128462DED028BB0EE408A08F0DA
:101E2800DDFBDFED0F7AF7EE006A0023257084ED05
:101E3800028A28EE278AF6EE007AE3604FF08043A4
:101E480028EE278A63614FF48073C4ED067A86EE24
:101E5800887AA383BDEC028B84ED017A38BD00BF7C
:101E68006F12033B244B07B5D3F8D8200B2042F060
:101E78000102C3F8D8200022D3F8D830114603F065
:101E880001030193019B01F091FB0B2001F0C0FBC2
:101E980000220C20114601F089FB0C2001F0B8FB50
:101EA80000220D20114601F081FB0D2001F0B0FB4E
:101EB80000220E20114601F079FB0E2001F0A8FB4C
:101EC80000220F20114601F071FB0F2001F0A0FB4A
:101ED80000221020114601F069FB102001F098FB48
:101EE80000221120114601F061FB112003B05DF8BA
:101EF80004EB01F08DBB00BF004402582DE9F0410E
:101F080004461E460023154608462DED028B6361E4
:101F18004FF6FF73B0EE408A9DF824802382E27466
:101F2800A1749DF820109DF8287008F057FB4146D1
:101F3800284608F053FBB0EE480A3B463246204696
:101F48000121BDEC028BBDE8F04100F049BC000066
:101F580030B583788FB00446022B21D0032B02D0F2
:101F6800591E4B424B410A93E378012B03D09A1E2A
:101F7800534253415B000B93002320460C9300F01F
:101F8800A9F80546204600F0ADF823780990082BFB
:101F980015D8DFE803F0071A28364452606E7C0033
:101FA8001123E0E7414BD3F8E02042F00102C3F8E7
:101FB800E020D3F8E03003F001030093009B09A967
:101FC800284602F0B7FB0FB030BD384BD3F8E020FD
:101FD80042F00202C3F8E020D3F8E03003F0020335
:101FE8000193019BEBE7314BD3F8E02042F0040268
:101FF800C3F8E020D3F8E03003F004030293029B17
:10200800DDE72A4BD3F8E02042F00802C3F8E020CD
:10201800D3F8E03003F008030393039BCFE7234B87
:10202800D3F8E02042F01002C3F8E020D3F8E03003
:1020380003F010030493049BC1E71C4BD3F8E02082
:1020480042F02002C3F8E020D3F8E03003F0200388
:102058000593059BB3E7154BD3F8E02042F0400207
:10206800C3F8E020D3F8E03003F040030693069B62
:10207800A5E70E4BD3F8E02042F08002C3F8E02039
:10208800D3F8E03003F080030793079B97E7074BEB
:10209800D3F8E02042F48072C3F8E020D3F8E030AF
:1020A80003F480730893089B89E700BF0044025833
:1020B80070B506460D4600F00DF80446304600F0AF
:1020C80011F82A1E0146204618BF0122BDE87040BB
:1020D80002F018BC0278024B53F82200704700BF88
:1020E8008CB100084278024B33F81200704700BFE9
:1020F8006AB1000870B504461D469DF810301646B2
:1021080008462170237101216270A57008F066FAF3
:102118003046012108F062FA28460121BDE87040E6
:1021280008F05CBA0368C9B21B6818470023C2608C
:102138000170436070470170704710B5044601781C
:10214800C06800F06DFCE06800F098FD6060B0FACF
:1021580080F0400910BD70B504460E46017815465A
:10216800C06800F05DFCE068314603681B6898476A
:10217800E068294603681B689847E06800F07EFD20
:10218800606070BD10B401294FF00004446004D9A8
:10219800FD225DF8044B426070475DF8044BFFF781
:1021A800DABF0021202210B504464160FFF7EAFF9C
:1021B800362220460121BDE81040FFF7E3BF38B5BD
:1021C80004460021C06800F01FFE2046FFF7B5FF57
:1021D800054610B12046FFF7E4FF284638BDF8B59C
:1021E80004460F4601781646C0681D4600F018FCE4
:1021F800E068394603681B689847E068F1B2FFF762
:1022080091FFC6F30421E068FFF78CFFE068E9B2AC
:10221800FFF788FFC5F30421E068FFF783FFE06854
:1022280000F02CFD6060F8BD30B40F294FF00005B8
:10223800456003D9FE2330BC4360704789000631EE
:1022480030BC01F0FE01FFF7CABF0000D1F800C0A2
:10225800BCF1010F2DE9F043044685B00F464FF05D
:10226800000800F38A800E46C0F850820546C0E98F
:1022780092880FCE0FC50FCE0FC5424B009303F5C2
:1022880080630193A3F57873029303F58063039346
:1022980004AB03EB8C0C96E803005CF8103C85E873
:1022A8000300A3625CF8083CC4F8C0303B69042B07
:1022B80009D8DFE803F0033F424548004FF4FA53DA
:1022C800A364C4F8E030BB693A6A002B3DD1003AF8
:1022D80018BF0122C4E90B23FB697A6A002B3BD1A2
:1022E800003A18BF012204F12800C4E931237B69B0
:1022F800022B9FBF244A12F80380244A12F8039045
:1023080000234246636449466363E365C4F8DC30EE
:10231800C4F8CC30C4F8F430C4E90F33C4E9153339
:10232800C4E93533C4E93B33022305F019FDD0B1C4
:10233800FFBEFEE74FF47A53C2E74FF4FA43BFE714
:102348004BF68033BCE7124BBAE7002A4FF0010383
:1023580014BF03220222BDE7002A4FF0010314BF75
:1023680003220222BFE702234246494604F1C00085
:1023780005F0F6FC10B1FFBEFEE7012005B0BDE890
:10238800F08300BF04580140D3B10008D0B1000861
:1023980000770100026838B561BB036A00F12805BF
:1023A80000F5AC74013B18BF01239B01EAB91D4A33
:1023B800C0F8582157224FF480514FF48070C4E977
:1023C800012300234FF48062C4E903324FF48042B2
:1023D8006362C4E905124FF40032C4E907022046DB
:1023E80001F09EFBD0B1FFBEFEE70F4AC0F85821AE
:1023F8005922E0E7436A00F1C00500F5E874013BA3
:1024080018BF01239B0122B9084AC0F8D0215822DD
:10241800D1E7074AC0F8D0215A22CCE7C5E92044C1
:10242800A56338BD10000240580002402800024051
:102438007000024010B4D0F854420B4664B1D0E9A1
:102448009312D0F8480201EB830100EB8300234686
:1024580052085DF8044B18475DF8044B70472DE9A6
:10246800F8439CB2C0F850328369904607468946C3
:10247800012B00F1280500F1C006C0E99212089A64
:10248800C0F854221BD1036A2246012B0DD12846DD
:1024980005F068FD7B6A2246012B0BD14946304680
:1024A80005F060FD0020BDE8F8834146284605F0A8
:1024B800EDFCEFE74146304605F0E8FCF2E7436AF9
:1024C8002246012B09D1304605F04CFD3B6A2246D5
:1024D800012B07D149462846E2E74146304605F038
:1024E800D5FCF3E741462846E6E700000269042ADE
:1024F8009DBF044B03EB820393ED000A9FED020A94
:10250800704700BFBCB1000800803B472DE9F0438D
:10251800831D8BB004460593031D069300F1080341
:10252800079300F10A03089300F10C0309938369E8
:1025380063B3C569B5FA85F56D09012302220DF16A
:10254800140800274FF006090393CDE9012358F832
:10255800046B227933789A4204D161797278914276
:1025680000D16DB122689AB1012A14D03046FFF724
:10257800B9FD00903046FFF7ADFD694602F0DAF884
:102588000137052FE3D10BB0BDE8F0830125D4E76F
:10259800CDF81090EAE733B97378022B0CBF082303
:1025A8000A230493E2E70A23FBE7000070B50368F7
:1025B80088B0434E0546B34202D0424A934231D1D5
:1025C800414C4248D4F8E03043F01003C4F8E030FE
:1025D800D4F8E03003F010030093009BD4F8F030F7
:1025E80043F48003C4F8F030D4F8F03003F48003E7
:1025F8000193019BFFF78AFFD4F8D830296843F08C
:1026080001033248891BC4F8D830D4F8D83018BF31
:10261800012103F001030293029B08B0BDE870405A
:10262800FFF7B8BE2A4EB34202D02A4A934245D198
:10263800254C2948D4F8E03043F00103C4F8E030D1
:10264800D4F8E03003F001030393039BD4F8E0309F
:1026580043F00803C4F8E030D4F8E03003F008038E
:102668000493049BD4F8E03043F04003C4F8E0300E
:10267800D4F8E03003F040030593059BD4F8F0301C
:1026880043F40003C4F8F030D4F8F03003F4000346
:102698000693069BFFF73AFFD4F8D830296843F031
:1026A80001030D48891BC4F8D830D4F8D83018BFB6
:1026B800012103F001030793079BAEE708B070BD43
:1026C8000458014024580140004402589002002454
:1026D800045C0140245C0140EC040024014801F042
:1026E80053BE00BFE8030024014801F04DBE00BFFF
:1026F80060040024014801F047BE00BF44060024DE
:10270800014801F041BE00BFBC06002403680D4A21
:10271800934202D02032934206D10B4B0021184637
:10272800C3F85812FFF786BE084A934202D02032F7
:10273800934206D10448002100F51770C0F85812DA
:10274800F0E770470458014090020024045C0140FF
:1027580003680F4A934202D02032934207D10D48B2
:10276800D0F850124908C0F85812FFF763BE0A4A59
:10277800934202D02032934208D10648D0F8AC14D4
:1027880000F517704908C0F85812EEE7704700BF07
:102798000458014090020024045C014010B4024631
:1027A8004FF417740868044B04FB00305DF8044BC1
:1027B8001060FFF74BBD00BF90020024006870470F
:1027C80013B5049C00940068FFF749FE002002B08E
:1027D80010BD0068FFF78ABE0368D3F85802704737
:1027E800B7EE007A10B4C7EE007A0446104600220D
:1027F80021701946227300226073A260C4ED017A29
:102808005DF8044B07F0EABE1FB500F035FF4FF046
:102818004052124B01246846ADF80040CDE901232F
:102828004FF48073039300F045FF002340F2011238
:1028380068468DF801408DF80D308DF80A3019235F
:10284800ADF80E208DF808304FF04043019300F0AA
:1028580031FF042000F01EFF04B010BD0E0001037C
:1028680000F07ABE014B00221A6070474807002426
:1028780000207047028BC08A101A7047C28A03462C
:10288800018B914283BF0169885C01324FF0FF30B0
:1028980088BFDA827047028BC38A9A4286BF026970
:1028A800D05C4FF0FF307047806DD0F8DC302BB132
:1028B8000023D43020F8B23CC368184770478368B7
:1028C80010B5044613B1032201469847204610BDAF
:1028D80070B54FF47A730E46002115462C4A04460B
:1028E800C0E90113034643F8C42B9C22C0F8C41066
:1028F800C3E90111C0E93411C0E93611C0F8E0108C
:10290800283008F0DBF9F3B2202B19D8214A06F455
:10291800E06652F823301E43EBB2C4F88460202BE3
:1029280022D81C4A05F4E06552F823301D430023E1
:102938002046C4F88850E36123842361A38270BDD4
:1029480006F0C002C02A0CD1CB2B0AD806F03F02F1
:10295800114B06F4E06653F822200E4B53F8223050
:10296800D9E74FF0FF36D7E705F0C002C02A0CD1EF
:10297800CB2B0AD805F03F02074B05F4E06553F866
:102988002220044B53F82230D0E74FF0FF35CEE732
:10299800E0B1000814B60008E4B5000838B50446EC
:1029A800283000F065FBE06918B108F09BF80023B7
:1029B800E36100252069258410B108F093F82561AA
:1029C800A58238BD38B5084B0546044645F8D43BC2
:1029D800FFF7E4FF2846FFF772FF04F1C400FFF792
:1029E8006EFF204638BD00BFE0B1000838B500F1E1
:1029F80028050446284600F0B3FB94F8BE304BB9CE
:102A08002846054900F098FC28460449BDE83840A6
:102A180000F08BBC38BD00BFB12800086D2A000843
:102A28000123994080F8243000238176438470473D
:102A38000123994080F8243000238176438470472D
:102A480038B5838A05460C468B4209D2202900698D
:102A580038BF2024214608F0FBF810B12861AC8269
:102A680038BDFEE773B5846D0546866ED4F8CC3064
:102A7800E3B1E28A238B9A4218D331462046FFF706
:102A8800DFFF324605F17401206908F055F900238B
:102A98002683E382D4F8CC3001960BB908F0F8F914
:102AA800D4F8D03001A904F1C400984702B070BD31
:102AB800B1F5806F70B505460C4610D8038C994265
:102AC8000AD920290E46C06938BF2026314608F0A9
:102AD800BFF818B1E8612E84204670BDFEE70024D7
:102AE800FAE713B590F8243004468DF807107BB147
:102AF800418C0131FFF7DCFF40B1638C01209DF868
:102B08000710E269D154638C0133638402B010BDAD
:102B180001220DF10701283000F036FBB0FA80F0F1
:102B28004009F3E770B590F8243004460E46154680
:102B380093B1418C1144FFF7BBFF10B9002528461B
:102B480070BD638C2A46E0693146184408F0F4F8F1
:102B5800638C2B446384F2E792B2283000F014FBB4
:102B68000028EBD1EBE70346006918B19A8A0021E7
:102B780008F0A4B870470346C06918B11A8C002140
:102B880008F09CB8704738B50446C9B9AA23A365AC
:102B980094F8BE30012B16D1638C04F12800E26949
:102BA800A17E00F071FB042828BF0420C5B220468E
:102BB800FFF7E1FF0023638484F82430284638BDFA
:102BC8004FF42A43E3E70425F8E72DE9F04790F8A6
:102BD800BEA004460F461546BAF1010F98469DF867
:102BE80020609DF8249039D17F001146FFF728FF17
:102BF800FFB286B1032E4FF0000384F824A028BF4B
:102C08000326A7766384013EF6B2FF2E1AD100216F
:102C18002046FFF7B8FFB9F1000F1CD1AA23A3651E
:102C280039462B46226904F128002E4600F0C6FAE0
:102C380000239842E3821CBF1D462E462846268361
:102C4800BDE8F087F1002368204628FA01F11B68E7
:102C5800C9B29847D7E74FF42A43E0E70020EFE7E7
:102C680007B5019300230093FFF7AFFF03B05DF8AA
:102C780004FB0123D2B2C9B2FFF7F2BF0121FFF76B
:102C880082BF38B500250446C5820583FFF76BFF70
:102C980020466584FFF76FFF38BD00002DE9F0413D
:102CA8000446D0F8840007F053FC002107F096FC96
:102CB800D4F88430C3F303120A2A44D8264D03F00B
:102CC8000F03264F55F8222057F8233012699343F3
:102CD8003FD0D4F8880007F03BFC012107F07EFCC8
:102CE8001F4BD4F888001B681E4CC0F3031100F07A
:102CF8000F02B3FBF4F30A24A14204FB03F325D823
:102D080057F822701426184A4FEA074E55F821C082
:102D1800CCF818E0D2F804805468A4EB0804A34265
:102D2800FADCCCF81870D2F804C05468A4EB0C0490
:102D3800A342FADC013EE9D107F00AFC3146BDE8BE
:102D4800F04107F04BBC00231B69FFDE00239B61A9
:102D5800FBE7BDE8F08100BFA40000240CB2000826
:102D6800F800002440420F00001000E02DE9F04177
:102D7800002504461F460E46C58290460583FFF788
:102D8800F2FE20466584A576FFF7F5FED4F8DC3020
:102D9800C4F8804033B104F1D401032208469847AF
:102DA800C4E937550023012E84F8BF8084F8243005
:102DB8004FEA460384F8C07084F825300CBF01231D
:102DC800002384F8BE3002D12046FFF767FF04F1E4
:102DD800280594F825200949284600F047F894F872
:102DE800BE304BB92846064900F0A6FA28460549E0
:102DF800BDE8F04100F099BABDE8F081A086010075
:102E0800B12800086D2A00080A4600230121FFF7AF
:102E1800ADBF00000B220C210148FFF759BD00BFD0
:102E28004C0700240148FFF7CDBD00BF4C07002424
:102E3800084B0246984208D9074B984207D90749D8
:102E480007488A4288BF00207047064870470648EE
:102E5800704700BFA0860100801A060040420F009C
:102E68001A0980108A62E0303211D020F0B50E467F
:102E780085B015460446002800F0DF807049C06D13
:102E880006F0D2FD07466F49206E06F0CDFD0146DB
:102E9800002F00F0D280002800F0CF80384606F0DE
:102EA800EAFD2060002800F0C880674B271D984283
:102EB8005AD1664BD3F8E82042F40012C3F8E82050
:102EC800D3F8E82002F400120092009AD3F8902078
:102ED80042F40012C3F89020D3F8902022F4001294
:102EE800C3F890205A4B63665A4B1F605549206EB1
:102EF80006F082FD5249E06D06F07EFD23683046FB
:102F08006360FFF795FF01230221C4E9020500254C
:102F1800B4F96400C4E9043594F897302A46A561E9
:102F28005B1B84F8455018BF0123DB04236294F827
:102F380098305B1B18BF01235B04636200F036FB0B
:102F4800B4F9640000F064FB2A460221B4F9660073
:102F580000F02CFBB4F9660000F05AFB384601F08B
:102F68003AFE002865D0FEE73B4B98421DD1374B0F
:102F7800D3F8E82042F48002C3F8E820D3F8E82028
:102F880002F480020192019AD3F8902042F4800260
:102F9800C3F89020D3F8902022F48002C3F8902040
:102FA8002E4B63662B4B5F60A0E72D4B98421DD1DB
:102FB800264BD3F8E82042F40002C3F8E820D3F8FF
:102FC800E82002F400020292029AD3F8902042F418
:102FD8000002C3F89020D3F8902022F40002C3F82E
:102FE8009020204B63661B4B9F607FE71E4B9842E7
:102FF8007FF47CAF03F50A33D3F8F42042F0800263
:10300800C3F8F420D3F8F42002F080020392039A64
:10301800D3F89C2042F08002C3F89C20D3F89C206F
:1030280022F08002C3F89C20104B6366094BDF60D6
:103038005CE70223A06684F8953005B0F0BD00BFB8
:1030480010B10008C8B000080054004000440258FD
:103058001F002000300800240058004021002200F2
:10306800005C004048004900001C00585F006000F8
:1030780010B50446B0F9640000F0D8FAB4F9660057
:1030880000F0D4FA201D01F0FCFD0321206E06F0AB
:1030980021FC0321E06D06F01DFC23682B4A9342B6
:1030A80013D12B4BD3F8902042F40012C3F8902090
:1030B800D3F8902022F40012C3F89020D3F8E82027
:1030C80022F40012C3F8E82010BD224A934211D11D
:1030D8001F4BD3F8902042F48002C3F89020D3F815
:1030E800902022F48002C3F89020D3F8E82022F43C
:1030F8008002E7E7184A934211D1154BD3F8902084
:1031080042F40002C3F89020D3F8902022F4000281
:10311800C3F89020D3F8E82022F40002D2E70F4A3F
:103128009342D1D10A4BD3F89C2042F08002C3F8D5
:103138009C20D3F89C2022F08002C3F89C20D3F86E
:10314800F42022F08002C3F8F420BDE700540040C8
:103158000044025800580040005C0040001C005821
:1031680010B504460846FFF763FE6268136823F04B
:1031780001031360A060201D01F02DFD6268136833
:1031880043F00103136010BD202A30B514D8002382
:103198009CB2A24207D890F894301344DBB280F86E
:1031A8009430002030BD90F89440CD5C1C4401332D
:1031B800044484F87450EBE70120F3E72DE9F34762
:1031C80005460F4690469946002400F0BFF904359D
:1031D800D5F82CA006464B46424639462846CDF837
:1031E80000A001F059FE022806D100F0AFF9841BB7
:1031F800642CF0D906201FE008BB00F0A7F90646AA
:10320800284602F09DFD202809D0632C07D800F03D
:103218009DF9841B284602F096FD0028F0D0284628
:1032280002F091FD632C0CD882060AD443070AD415
:10323800003818BF0120800002B0BDE8F0870420E4
:10324800FAE70520F8E70320F6E710B564230446FB
:10325800043001F02FFD022810D0032806D090B1C9
:1032680094F84530202B18BF042004E094F845302A
:10327800202B18BF052008BF022004E094F8453031
:10328800202B18BF062010BD2DE9F3471F46044622
:103298000E46914600F05AF980463FB90122314660
:1032A800204602B0BDE8F047FFF7CFBFD4F830A002
:1032B800002504343B464A4631462046CDF800A056
:1032C80001F080FD022807D100F040F9A0EB0805C5
:1032D800642DEFD906201FE008BB00F037F9064639
:1032E800204602F02DFD202809D0632D07D800F0D4
:1032F8002DF9851B204602F026FD0028F0D0204637
:1033080002F021FD632D0CD882060AD443070AD4A3
:10331800003818BF0120800002B0BDE8F087042003
:10332800FAE70520F8E70320F6E720B119B1C166EE
:10333800043001F0C7BE704720B119B101670430ED
:1033480001F0C0BE704770B590F8913004460E4643
:10335800051F012B09D1436E3BB1836E2846984760
:10336800022384F8913000236366012E4FF0000396
:1033780012D1E26E84F891301AB1284684F8903060
:10338800904794F8902004F1700120464FF00073A4
:10339800BDE8704001F0D2BD0122636620464FF0BF
:1033A800807384F89120616E74312944BDE87040BF
:1033B80001F026BE10B590F891300446012B04D1D7
:1033C800436E13B1836E043898470223204684F86D
:1033D800913000236366BDE8104001F073BE436E70
:1033E8001F2B02DC436E0133436690F89130012BAA
:1033F800DAB206D1416E4FF080737031014401F0AA
:10340800FFBD7047002380F89030704790F89230E5
:103418000BB901F057BE7047014B186801F066BE42
:1034280030080024014B186802F0F9B9300800246C
:10343800014B586801F05ABE30080024014B586807
:1034480002F0EDB930080024014B986801F04EBE37
:1034580030080024014B986802F0E1B930080024D4
:10346800054B10B5DC68204601F040FE2046BDE85B
:10347800104002F0D4B900BF30080024014BD868CE
:1034880002F0CDB9300800247047000038B50F4B62
:1034980005461A780AB9012038BD4FF47A73B3FB90
:1034A800F2F30B4A1068B0FBF3F000F0D1F80446D1
:1034B8000028F0D10F2DEED8024629464FF0FF30F4
:1034C80000F074F8034B20461D60E5E798000024DF
:1034D800F80000249C00002410B5032000F054F8E4
:1034E80002F008FF0F49104A8B69C3F30323D35C2A
:1034F80003F01F03D8408B6903F00F03D35C0B4A1A
:1035080003F01F0320FA03F31360094B186000202F
:10351800FFF7BCFF044618B9FFF7B6FF204610BDF9
:103528000124FBE70044025874B20008F4000024A8
:10353800F8000024034A044B11681B780B441360FD
:10354800704700BF4008002498000024014B186809
:10355800704700BF4008002438B50446FFF7F6FF5F
:103568000546631C1EBF044B1B78E418FFF7EEFFEB
:10357800431BA342FAD338BD98000024014B1868B6
:10358800000C70470010005C07490302CA6803F486
:10359800E06322F4E0621204120C134343F0BF63A9
:1035A80043F40033CB60704700ED00E0164B30B5B4
:1035B800DC68C4F30224C4F10703251D042B28BFCB
:1035C8000423062D4FF0FF358CBF033C002405FA79
:1035D80003F3002805FA04F521EA030322EA0502A9
:1035E80003FA04F343EA02034FEA0313DBB206DBF0
:1035F80000F1604000F5614080F8003330BD00F014
:103608000F00024A1354F9E700ED00E014ED00E062
:10361800002807DB0123410900F01F00024A83400C
:1036280042F82130704700BF00E100E000280CDBC1
:103638004309012200F01F0004492033824041F869
:103648002320BFF34F8FBFF36F8F704700E100E077
:103658000138B0F1807F0BD24FF0E023054AF0210A
:103668005861002082F82310072298611A61704778
:103678000120704700ED00E0BFF35F8F044B5A6AEA
:1036880022F480325A620022C3F89420704700BFA7
:1036980000ED00E0064B40F00100C3F894005A6AC0
:1036A80042F480325A62BFF34F8FBFF36F8F704777
:1036B80000ED00E04378144AC2F89830D2F8A03000
:1036C80023F00103C2F8A0304368C2F89C30C37AE3
:1036D800017B1B0643EA017301780B43817A43EAB5
:1036E800C143417B43EA8143817B43EA4143C17B38
:1036F80043EA0143417A43EA0123017A43EA410359
:10370800C2F8A030704700BF00ED00E0002808DBD9
:103718004309012200F01F0002496033824041F84A
:103728002320704700E100E0704708B5FFF7FCFF71
:1037380008BD704710B5044608B9012010BD437F85
:1037480003F0FF0213B90277FFF7F3FF0223637751
:103758002379E3B92368134A5A619A6822F0180258
:103768009A6062792368D2B94FF0FF321A6100205B
:103778009A68616922F060020A43A1699A609A68AE
:1037880022F080020A439A6001236377D6E7D4E9DE
:103798000212204600F008F80028E2D0CDE722699E
:1037A800E4E700BFB71DC104CB0710B50BD51E2336
:1037B80021FA03F4E40708D5102A18D0102A09D8EA
:1037C80062B1082A15D0012010E0013BF0D2102A7E
:1037D800F4D1F8E7182AF6D1062BF4D8006841612D
:1037E800836823F0180313438360002010BD072B60
:1037F800F3E70F2BF1E710B5044640B1022303713C
:1038080005F09EFE002020616071207110BD01202E
:10381800FCE7012310B558B1046801F010012268D3
:1038280003FA01F122EA010222600371002010BDAF
:103838001846FCE7F0B5DFF844C10468876D6445B5
:1038480045D04C4DAC4242D01835AC423FD018352B
:10385800AC423CD01835AC4239D01835AC4236D0E1
:103868001835AC4233D01835AC4230D005F5567512
:10387800AC422CD01835AC4229D01835AC4226D0F1
:103888001835AC4223D01835AC4220D01835AC429C
:103898001DD01835AC421AD01835AC4217D0364D69
:1038A800AC4214D01435AC4211D01435AC420ED011
:1038B8001435AC420BD01435AC4208D01435AC42A8
:1038C80005D01435AC4202D01435AC4248D1D0E909
:1038D80019566E60C56E15B1D0E91C566E60644508
:1038E800C56D86682DD0234884422AD0183084427A
:1038F80027D01830844224D01830844221D0183080
:1039080084421ED0183084421BD01830844218D00C
:1039180000F55670844214D01830844211D0183003
:1039280084420ED0183084420BD01830844208D01C
:103938001830844205D01830844202D018308442AE
:103948000FD13F2005F01F0500FA05F5BD6020687E
:1039580020F480202060402E636008D1A260E160DE
:10396800F0BD05F01F050120A8407860F3E7A160CD
:10397800E260F5E7280002400854025810000240AF
:103988000368024623498B4210B531D018318B4267
:103998002ED018318B422BD018318B4228D01831B9
:1039A8008B4225D018318B4222D018318B421FD040
:1039B80018318B421CD001F556718B4218D0183142
:1039C8008B4215D018318B4212D018318B420FD050
:1039D80018318B420CD018318B4209D018318B42E8
:1039E80006D018318B4203D023F0FF00906510BD3C
:1039F800DCB218210848103CB4FBF1F101F00701D2
:103A08005F2C415C23F47F7020F00300D16588BFF0
:103A18000430EBE71000024004B2000802682049B5
:103A2800D3B28A4228D014318A4225D014318A422E
:103A380022D014318A421FD014318A421CD014314A
:103A48008A4219D014318A4216D014318A4213D0CE
:103A58001821103BB3FBF1F312491144A8291CD9D2
:103A680003F18052012103F01F0302F5024201FA1B
:103A780003F30D4992000CE01422083B0121B3FB2B
:103A8800F2F303F1B05201FA03F3084902F51642C2
:103A980092008366C0E9182170470833E0E700BF49
:103AA80008540258F0FBFDBF8008024080580258B5
:103AB8000279511E072910B521D80368134CA34277
:103AC8001ED01434A3421BD01434A34218D014348B
:103AD800A34215D01434A34212D01434A3420FD0F9
:103AE8001434A3420CD01434A34209D0084B134415
:103AF800084A9B00C0E91B3201238B40436710BD75
:103B0800054B1344054A9B00F4E700BF08540258CC
:103B18003F820010400902403F9600164059025863
:103B2800F8B50546FFF712FD0746002D00F0D280D4
:103B38002C68AA4EB44200F08D80A94B9C4200F03C
:103B4800898018339C4200F0858018339C4200F02D
:103B5800818018339C427DD018339C427AD0183328
:103B68009C4277D018339C4274D003F556739C421C
:103B780070D018339C426DD018339C426AD01833E9
:103B88009C4267D018339C4264D018339C4261D061
:103B980018339C425ED018339C425BD0914B9C42B8
:103BA80040F0FC80022385F83530002385F8343056
:103BB800AB682168402B6FF3101100F00D81A3F161
:103BC8008002534253419B03D5E9032002436869AD
:103BD8000243A8690243E8690243286A41EA1011CE
:103BE800284641EAD2021343142223607E4B234421
:103BF800B3FBF2F39B00EB65FFF7C2FEEB6D03F03E
:103C08001F02012393404360764B9C4200F0AB8037
:103C180014339C4200F0A78014339C4200F0A38028
:103C280014339C4200F09F8014339C4200F09B8028
:103C380014339C4200F0978014339C4200F0938028
:103C480014339C4200F08F8000200123686585F8BA
:103C5800353040E0022385F83530002385F83430CC
:103C6800236823F0010323602C682368DB0727D42B
:103C780023685E49AA691940D5E9023003432869D7
:103C8800034368690343E86913430343286A03430A
:103C9800686A042843EA010302BFD5E90B173943D0
:103CA8000B43534909686FF30F01B1F1005F1BD350
:103CB80069682E2910D8282916D943F4801313E0EF
:103CC800FFF744FCC01B0528CED920236B650323CE
:103CD80085F835300120F8BD3F39132904D8454F00
:103CE80027FA01F1CF07E8D423600428636923F099
:103CF800070343EA000328D1A96AE86A0B4320B303
:103D08003AB9012916D031F002021ED1C1011CD5E1
:103D180013E0B2F5005F14D1032916D801A252F8B6
:103D280021F000BF433D0008153D0008433D000851
:103D38003D3D0008B0F1C07F07D140236B650123EA
:103D4800C6E70229F9D90329E0D063612846FFF7BD
:103D580017FEEB6DB44203F01F024FF03F0303FA66
:103D680002F383604AD128460024FFF757FEAB6868
:103D78002A6E802B04BF00236B606B68D9B2013BAD
:103D88001160072BD5E91921516066D8FFF790FE1D
:103D9800EB6E1C60D5E91C325A6055E7164B9C4205
:103DA8003FF400AF14339C423FF4FCAE14339C4202
:103DB8003FF4F8AE14339C423FF4F4AE14339C4203
:103DC8003FF4F0AE14339C423FF4ECAE14339C4203
:103DD8003FF4E8AE402379E71023F5E610000240EF
:103DE8002800024008540258F8ABFDA73F8010FE97
:103DF8000010005C0F030F001C540258194B9C4222
:103E0800B1D018339C42AED018339C42ABD0183393
:103E18009C42A8D018339C42A5D018339C42A2D00B
:103E280018339C429FD003F556739C429BD018339D
:103E38009C4298D018339C4295D018339C4292D01B
:103E480018339C428FD018339C428CD018339C4234
:103E580089D018339C4286D0D6E6C5E91B446C67E6
:103E6800F2E600BF2800024070B50546002800F0C1
:103E7800DA8090F83400012800F0D780012085F816
:103E8800340095F8350001284FF0000040F0C68056
:103E98000224674E85F835402C686865B4421ED008
:103EA800644884421BD01830844218D018308442A9
:103EB80015D01830844212D0183084420FD01830F0
:103EC80084420CD01830844209D000F556708442E0
:103ED80005D01830844202D018308442FFD02068C0
:103EE80020F0010020602846FFF7A4FCB4422A6CA9
:103EF80053D0504B9C4250D018339C424DD018336D
:103F08009C424AD018339C4247D018339C4244D034
:103F180018339C4241D018339C423ED003F5567367
:103F28009C423AD018339C4237D018339C4234D044
:103F380018339C4231D018339C422ED018339C42FF
:103F48002BD018339C4228D018339C4225D02368A4
:103F580023F00E0343F00A032360002A54D1364BA2
:103F68009C4225D0354B9C4222D014339C421FD012
:103F780014339C421CD014339C4219D014339C42F5
:103F880016D014339C4213D014339C4210D02368AB
:103F9800002043F00103236070BD236823F01E0353
:103FA80043F0160323601AB1236843F00803236023
:103FB8002B6E1A68D2032CD4EB6E1BB11A6842F42C
:103FC80080721A60B442E2D01A4B9C42DFD0183398
:103FD8009C42DCD018339C42D9D018339C42D6D0AE
:103FE80018339C42D3D018339C42D0D018339C420B
:103FF800CDD003F556739C42C9D018339C42C6D025
:1040080018339C42C3D0C2E7236843F004032360FB
:10401800A5E71A6842F480721A60CDE74FF400638E
:1040280085F834006B650120B6E70220B4E700BFCD
:104038001000024028000240085402581C5402583C
:10404800F8B50546FFF782FA074645B195F83530C9
:10405800022B06D080236B65002385F834300120BD
:10406800F8BD2C687C4EB4425BD07C4B9C4258D047
:1040780018339C4255D018339C4252D018339C4276
:104088004FD018339C424CD018339C4249D0183337
:104098009C4246D003F556739C4242D018339C424A
:1040A8003FD018339C423CD018339C4239D0183347
:1040B8009C4236D018339C4233D018339C4230D0BF
:1040C80018339C422DD0236823F00E032360644BE1
:1040D8009C422FD12A6EB442136823F48073136074
:1040E8003DD05E4B9C423AD018339C4237D01833AF
:1040F8009C4234D018339C4231D018339C422ED085
:1041080018339C422BD018339C4228D003F55673A1
:104118009C4224D018339C4221D018339C421ED094
:104128001DE0236823F01E032360636923F08003E6
:104138006361CFE74B4B9C42CCD014339C42C9D02F
:1041480014339C42C6D014339C42C3D014339C42CF
:10415800C0D014339C42BDD014339C42BAD02368DB
:1041680023F0010323602368DB0747D42B68EA6D3B
:10417800B342A86D02F01F024BD038498B4248D099
:1041880018318B4245D018318B4242D018318B42BE
:104198003FD018318B423CD018318B4239D018317E
:1041A8008B4236D001F556718B4232D018318B4292
:1041B8002FD018318B422CD018318B4229D018318E
:1041C8008B4226D018318B4223D018318B4220D015
:1041D80018318B421DD0012101FA02F24260204AB7
:1041E80093421AD1D5E919325A60EB6E5BBB0123B1
:1041F800002085F8353085F8340031E7FFF7A6F957
:10420800C01B0528AFD920236B65032385F83530FB
:1042180022E73F2393408360E4E7124A9342E1D0C8
:1042280014329342DED014329342DBD014329342DC
:10423800D8D014329342D5D014329342D2D014320B
:104248009342D4D1CEE71A6822F480721A60D5E975
:104258001C325A60CBE700BF100002402800024021
:10426800085402581C54025808B528B190F8353043
:10427800022B03D08023436501205DE003683F4A99
:10428800934251D0183293424ED0183293424BD0B9
:104298001832934248D01832934245D0183293428C
:1042A80042D0183293423FD0183293423CD002F5A4
:1042B8005672934238D01832934235D0183293420E
:1042C80032D0183293422FD0183293422CD0183261
:1042D800934229D01832934226D01832934223D0E1
:1042E8001A6822F00E021A601A6822F001021A6097
:1042F800234A934221D1026E136823F4807313601A
:10430800D0E9161303F01F02012393404B60D0E954
:1043180019325A60C36E2BB31A6822F480721A607D
:10432800D0E91C325A601DE0042280F835201A6852
:1043380022F001021A60002008BD124A9342DAD026
:1043480014329342D7D014329342D4D014329342C9
:10435800D1D014329342CED014329342CBD01432FF
:104368009342C8D0012380F83530002380F83430D8
:10437800036D002BDFD09847DDE700BF1000024037
:10438800085402581C54025800232DE9F3410193A4
:104398000446844B844F1E680368856DBB42D5F87C
:1043A8000080D5F800C047D0804A934244D01832E4
:1043B800934241D0183293423ED0183293423BD0B8
:1043C8001832934238D01832934235D0183293427B
:1043D80032D002F5567293422ED0183293422BD027
:1043E8001832934228D01832934225D0183293427B
:1043F80022D0183293421FD0183293421CD0183260
:10440800934219D06A4A934240F03681E16D042004
:104418001A6801F01F01884010EA0C0F00F0538160
:10442800560740F150811104686040F14481D3037C
:1044380000F14781A36CA0E0E26D082102F01F02A1
:10444800914011EA080F0BD01868400708D5186882
:1044580020F004001860A960616D41F001016165F8
:1044680028FA02F1C80709D55969090606D50121B4
:104478009140A960616D41F002016165042191409C
:1044880011EA080F07D01868800704D5A960616D84
:1044980041F004016165102101FA02F212EA080FE5
:1044A8000FD0196809070CD5AA601A6850036CD593
:1044B8001B68190301D4236C00E0A36C0BB12046E0
:1044C8009847E26D202102F01F02914011EA080F7F
:1044D8007AD02368BB422DD0344883422AD0183082
:1044E800834227D01830834224D01830834221D009
:1044F800183083421ED0183083421BD018308342B4
:1045080018D000F55670834214D01830834211D069
:10451800183083420ED0183083420BD018308342B3
:1045280008D01830834205D01830834202D01830A2
:10453800834232D1186810F0100F45D0A96094F862
:104548003510042936D1196821F016011960596906
:1045580021F080015961216C09B9A16C19B1196860
:1045680021F0080119603F239340AB60012384F8D0
:104578003530002384F83430236D002B00F0988008
:10458800204602B0BDE8F04118471A68D20592D417
:104598001A6822F008021A608DE7186810F0020FF6
:1045A800CBE700BFF80000241000024028000240BA
:1045B800085402581A68500343D51B6819034DD490
:1045C800636C0BB120469847636D002B70D0636D08
:1045D800DA074FD5042384F835302368BB421ED050
:1045E8004F4A93421BD01832934218D01832934244
:1045F80015D01832934212D0183293420FD0183285
:1046080093420CD01832934209D002F55672934265
:1046180005D01832934202D018329342FFD01A685C
:1046280022F001021A604FF41652B6FBF2F6019A14
:104638000132B242019213D91B68DB0714D401235B
:1046480013E01A6812F4807208D1196821F0100179
:104658001960012384F8342084F83530E36BB0E71F
:104668001A68D707E3D4E7E7032384F83530002333
:1046780084F83430E36C80E72A4A93423FF4C6AEAC
:10468800143293423FF4C2AE143293423FF4BEAEAA
:10469800143293423FF4BAAE143293423FF4B6AEAA
:1046A800143293423FF4B2AE143293423FF4AEAEAA
:1046B80002B0BDE8F081970603D41A6822F004021C
:1046C8001A60236C59E70220884010EA0C0F16D0B4
:1046D800960714D56860100403D5D1030DD4636C14
:1046E8004BE712F0200208D1196821F00A0119607D
:1046F800012384F8342084F83530E36B3DE7082043
:10470800884010EA0C0FD3D01207D1D51A6822F0CE
:104718000E021A60012303FA01F169606365A4E7D8
:10472800280002401C54025890F835007047406D2C
:10473800704700002DE9F74F0023DFF8C4914FF0D0
:10474800B0440A6832FA03F502D103B0BDE8F08F2D
:10475800012505FA03F818EA020200F0BB804E684A
:1047680003274FEA430E06F0030507FA0EFC6F1EF7
:104778006FEA0C0C012F34D8876807EA0C0ACF6857
:1047880007FA0EF747EA0A078760476827EA080822
:10479800C6F300179F4047EA08074760C768022D1D
:1047A80007EA0C088F6807FA0EF747EA0807C76098
:1047B80019D14FEAD30803F0070A4FF00F0B00EBAB
:1047C80088084FEA8A0AD8F820700BFA0AFB27EA09
:1047D8000B0B0F6907FA0AF747EA0B07C8F82070AE
:1047E80001E0032DDAD1076805FA0EF516F4403F0B
:1047F80007EA0C0745EA070505606BD0D9F8F450BD
:1048080023F0030703F0030C4FF00F0E45F00205E9
:1048180007F1B0474FEA8C0CC9F8F45007F58067E8
:10482800D9F8F4500EFA0CFE05F002050195019D29
:10483800BD6825EA0E0E314DA8424DD005F58065BC
:10484800A8424BD005F58065A84249D005F580659A
:10485800A84247D005F58065A84245D005F5806592
:10486800A84243D005F58065A84241D005F580658A
:10487800A8423FD005F58065A8423DD005F5806582
:10488800A84214BF0A25092505FA0CF516F4801F5D
:1048980045EA0E05BD606FEA020725680CBF3D407A
:1048A800154316F4001F256065680CBF3D4015438D
:1048B80016F4003F6560D4F884500CBF3D401543A2
:1048C800F603C4F88450D4F8805054BF3D401543D3
:1048D800C4F88050013334E70025D5E70125D3E734
:1048E8000225D1E70325CFE70425CDE70525CBE74A
:1048F8000625C9E70725C7E70825C5E700000258C8
:10490800004402580AB1816170470904FBE74FF07F
:10491800B042D2F88810014208B503D0C2F8880026
:1049280004F0F8FE08BD03689A69910701D50022D2
:104938009A629A69D20703D49A6942F001029A618D
:104948007047000030B5039DC1F3090104682B438B
:10495800606843EA0243054A0B4342EA555223F092
:10496800004320EA02000343636030BDFF63FF0396
:10497800204B426B9A4201F0010370B50DB201F071
:10498800020420D01C4EB2421DD01C4EB2421AD096
:10499800002DC3F10003B4BFB822002203F0F203D4
:1049A800134314B143F0F40308E0102902D143F093
:1049B800900303E0202901D143F0200301680A682D
:1049C80013430B6070BD002DC3F10003B4BFB822C0
:1049D800002203F0F2031343002CE3D11029E6D0A0
:1049E800202902D143F06003E8E7402908BF43F0DB
:1049F8004003E3E725570008855A0008FD550008DD
:104A080011F0010307D090F8413003F02803282B58
:104A180014BFF22342238A0709D590F8412002F0F7
:104A28002802282A0CBF43F0440343F0F4030A0485
:104A3800016848BF43F0B8030A6822EA03030B6021
:104A480070472DE9F8430568064688461746AC695D
:104A580014F0100470D000241023A146EB613568CF
:104A6800AB69980662D4B9F1000F34D044F004045D
:104A78000120AB69D90505D54FF4807244F00104D3
:104A88000120EA615A0505D54FF4806244F0080414
:104A98000120EA619B0551D54FF4007344F00204EC
:104AA800EB613046FFF73FFF6B68012023F0FF738F
:104AB80023F48B3323F4FF7323F001036B60736CCF
:104AC80023437364202386F84130002386F842305C
:104AD80086F8403034E0B8F1FF3FC1D0FEF736FD2C
:104AE800C01B404502D8B8F1000FB8D133685968E7
:104AF80096F842209869D2B200040AD5490408D42D
:104B0800202A06D05A6842F480425A60FEF71EFDF9
:104B1800074633689B699D06A1D4FEF717FDC01BA5
:104B28001928F6D920244FF0010998E7B9F1000FA8
:104B38009CD12023EB6199E720469AE70028B0D161
:104B4800BDE8F8832DE9F041DDF8188004460F46EA
:104B580016461D4623689B6937EA03030CBF0123E9
:104B68000023B34201D0002025E0424629462046D2
:104B7800FFF767FFF0B96B1CECD0FEF7E7FCA0EB82
:104B88000800A84201D8002DE4D123689B6937EAC0
:104B980003030CBF01230023B342DBD1636C43F052
:104BA80020036364202384F84130002384F84230D2
:104BB80084F840300120BDE8F081C36AAA2B02D1F5
:104BC8000023C3627047C36AB3F52A4FFAD14FF086
:104BD8000073F6E7704710B5044600284ED090F8E9
:104BE800413003F0FF021BB980F84020FFF7F2FFC5
:104BF800242384F8413023681A6822F001021A60DD
:104C0800626822F070621A619A6822F400429A601F
:104C1800D4E90221012906D142F400429A605A6877
:104C280022F4006207E042F4044202299A60F6D1B5
:104C38005A6842F400625A6000205A6842F00072D2
:104C480042F400425A60DA6822F40042DA60D4E999
:104C580004210A43A16942EA0122DA60D4E9072162
:104C68000A431A601A6842F001021A60202360643D
:104C780084F84130206384F8420010BD0120FCE72D
:104C8800704710B5044698B10268242380F8413073
:104C9800136823F001031360FFF7F2FF002060643C
:104CA80084F8400084F84100206384F8420010BD75
:104CB8000120FCE72DE9FF471D460023044617465F
:104CC800039390F84130202B79D103689B6913F442
:104CD800004374D190F84020012A70D0C1F309062E
:104CE800012246F0007880F84020242248F4205819
:104CF80080F841204364E3682268012B0ABF46F02C
:104D08000073434643F400535360FEF71FFC81468B
:104D1800226893699269C3F34013C2F300121343E4
:104D28001DD023689A6912F0100A38D12B465246D2
:104D380020212046CDF80090FFF704FF28B3636CCC
:104D4800042B04D123682022DA61C4F844A0039B11
:104D580001330393039B039BBB42CCD309E06B1C39
:104D6800D6D0FEF7F3FBA0EB0900A84201D8002D2E
:104D7800CED12023012084F84130636C43F0200316
:104D88006364002384F8403006E020232268D3615E
:104D980084F8413084F8400004B0BDE8F087102260
:104DA80020212046DA612B460022CDF80090FFF73B
:104DB800C9FE0028CBD123682022DA61C7E7022088
:104DC800EAE70000F7B5044690F84100089F20285C
:104DD8005BD194F84000012857D0012027F00075D6
:104DE800626284F84000212084F84100102084F891
:104DF8004200002060646385254BE7626363638D2E
:104E08009BB2FF2B24D9FF204FF0807620852DBB45
:104E1800944622681CF8013B93620246608D531E3B
:104E2800C4F824C00138238580B26085236B112B18
:104E380004D1AA2F02D0B7F52A4F11D12046FFF787
:104E4800BCFE638D9BB2FF2B00D8E66A114B08E0CD
:104E5800608DE66A80B220850028D8D10022E5E777
:104E68000023009333466DB9D2B200252046FFF7E0
:104E780069FD2046012184F84050FFF779FD284656
:104E880003B0F0BD94F82820EFE70220F8E700BF50
:104E9800CB5400080020008037B50446069894F8E3
:104EA8004150202D43D194F84050012D3FD0012589
:104EB800626284F84050222584F84150102584F815
:104EC80042500025656463851A4BE0626363638D15
:104ED8009BB2FF2B15D9FF234FF080722385236BDC
:104EE800122B04D1AA2802D0B0F52A4F0DD12046A2
:104EF800FFF763FE638D9BB2FF2B00D8E26A0E4B6F
:104F080004E0638DE26A2385E9E700230025009326
:104F18002046134694F82820FFF714FD2046022166
:104F280084F84050FFF724FD284603B030BD022026
:104F3800FBE700BFCB54000800240080F8B51F46EB
:104F480090F8413004460E4603F028031546282BF6
:104F580001D00120F8BD01B11AB94FF400736364A0
:104F6800F7E748F20101FFF74BFD90F84030012BBD
:104F780040D0012380F8403090F841302A2B14D1DA
:104F88000221FFF73DFD03681A6810040DD51A6861
:104F9800E06B22F400421A6038B1174B0365FFF743
:104FA80063F910B1E06B036D98472923206800224C
:104FB80084F84130202384F842306264436823F443
:104FC800004343606585638DE76223850B4B66620A
:104FD800636383698169C90303D51B0701D5082366
:104FE800C361204648F2010184F84020FFF7C0FC65
:104FF8000020AFE70220ADE7335D0008215C000820
:10500800F8B51F4690F8413004460E4603F02803D1
:105018001546282B01D00120F8BD01B11AB94FF46B
:1050280000736364F7E748F20201FFF7E9FC90F8C0
:105038004030012B3FD090F841300121292B80F8D6
:10504800401013D1FFF7DCFC03681A6850040DD533
:105058001A68A06B22F480421A6038B1174B0365B6
:10506800FFF702F910B1A06B036D98472A23206857
:10507800002284F84130202384F842306264436877
:1050880023F4004343606585638DE76223850C4BF9
:105098006662636383698169C90303D41B0701D509
:1050A8000823C361204648F2020184F84020FFF734
:1050B8005FFC0020B0E70220AEE700BF335D0008C8
:1050C800215C000808B590F84120202A0AD128223E
:1050D8004FF4004180F84120034A4263FFF748FC3F
:1050E800002008BD0220FCE7215C00080268436B31
:1050F8009169126803B1184770477047704738B50F
:10510800002580F8425090F84130212B4FF02003C1
:1051180080F841300AD11123012145630363FFF769
:105128006FFC80F84050FFF7E8FF38BD12230221DA
:1051380045630363FFF764FC80F84050FFF7DEFF28
:10514800F3E708B5036800211A6880F84210510493
:1051580015D51A6822F480421A6090F84130292B3C
:1051680013D12823012180F8413021230363FFF75D
:1051780047FC002380F84030FEF744F908BD1204CC
:10518800EBD51A6822F40042E6E790F841302A2B62
:10519800F4D12823022180F8413022230363FFF74A
:1051A8002FFC002380F84030FEF719F9E6E790F865
:1051B800412002F02802282AF8B5036835D19E69F3
:1051C800C2689D69C6F30046022A99684FEA1545E8
:1051D800DF6805F0FE051FD185EAD115C1F3090284
:1051E80015F006050ED1816C01318164816C0229AC
:1051F80007D108218564D96180F840503146FEF70F
:10520800A2F8F8BD4FF40041FFF7FAFB002307F0BE
:10521800FE0280F84030F1E74FF40041FFF7F0FB61
:1052280000232A4680F84030E8E70822DA610023A4
:1052380080F84030E5E7000008B5164B2022C3622D
:1052480000230363436380F8412080F842304B0712
:1052580012D503685A6A436A1A70436A0133436273
:10526800038D4BB1013B0385438D013B9BB24385C5
:10527800436C43F00403436448F20301FFF7C0FBA7
:1052880003681022DA61002380F84030FEF792F8B4
:1052980008BD00BF0000FFFF70477047704790F8D7
:1052A8004120602A4FF0000208B508D1202180F87B
:1052B800402080F841100263FFF7F0FF08BD026349
:1052C80080F84020FEF7A2F8F8E7000070B5002249
:1052D80090F841303C4D044680F84220283BC56296
:1052E8004285022B426C42EA010242642AD8032119
:1052F800FFF786FB282380F84130344BA06B6363AB
:10530800236B002841D0112B01D0212B3DD12368DC
:105318001A68510403D51A6822F480421A60FFF70C
:1053280003FA01282CD02A4BA06B0365002384F8CC
:105338004030FEF799FF002845D0A06B036DBDE80B
:105348007040184748F20301FFF75AFBFFF7EBFAE2
:1053580090F84130602B11D0202380F84130036849
:105368009A6995060AD59A69D00605D51022DA6198
:10537800626C42F0040262642022DA610023BDE715
:105388002046BDE87040FFF78ABFE06B0028F7D0E1
:10539800122B01D0222BF3D123681A68120403D5EB
:1053A8001A6822F400421A60FFF7BEF90128E7D014
:1053B800074BE06B0365002384F84030FEF754FF89
:1053C80008B1E06BBAE770BD0000FFFF215C000880
:1053D800335D000873B52023056804460E46EB616B
:1053E80090F84130212B36D10121FFF709FB112319
:1053F80023636B68F20623F0FF7323F48B3323F4E3
:10540800FF7323F001036B604FF000036363A3F5A0
:105418008033E36205D51023EB61636C43F004032A
:10542800636494F84130602B05D1730703D56B6A28
:10543800DBB20193019B2046FFF775FA636C94F881
:105448004120602A00D07BB1616C204602B0BDE8E3
:105458007040FFF73BBF90F84130222BC9D10221A1
:10546800FFF7CEFA1223C3E794F84120212A12D17C
:10547800202284F8403084F84120236394F84220A5
:1054880084F84230402A03D1FFF706FF02B070BD0E
:10549800FFF733FEFAE794F84120222AF6D12022BA
:1054A80084F8403084F84120236394F8422084F83B
:1054B8004230402A02D1FFF7F0FEE7E7FFF71EFE71
:1054C800E4E773B590F8403004460D461646012BC4
:1054D80000F08E800123E90680F8403017D5F206E7
:1054E80015D503681022DA61436C43F00403436462
:1054F800FFF719FAAA0605D5B30603D529462046AB
:10550800FFF768FF002084F8400002B070BD6B0709
:1055180012D5700710D5236825F004055A6A636A06
:105528001A70636A01336362238D013B2385638D9F
:10553800013B9BB26385DDE76906C5F380130DD493
:10554800AA070BD5B00709D5638D9BB2002BD1D024
:10555800636A226813F8011B9162E4E7290632D5D1
:105568007206C7D5638D22689BB203B3208DF0B94C
:105578005168638DC1F309019BB2FF2B08D9FF2243
:105588004FF08073228500902046FFF7DBF9B1E7E2
:10559800628DE36A92B213F5803F2285D2B202D0BF
:1055A800E36A0090F0E74FF000730090ECE753686F
:1055B8009B0103D42046FFF7A2FD9BE7402120462C
:1055C800FFF784FE96E7002B94D0700692D5638D82
:1055D8009BB2002BF2D123685A6891018AD4E26AFF
:1055E80012F5803FE6D15A6842F480425A6081E75A
:1055F80002208AE737B590F840300446012B00F0C6
:105608008680012380F84030CB0612D5D50610D508
:10561800036810222021DA61436C43F004034364D9
:10562800FFF7A6F9FFF77FF9002084F8400003B0E0
:1056380030BD880708D5930706D52368226D9A627E
:105648004FF0FF332365EFE70D0636D5500634D506
:1056580001212046FFF7D4F91021FFF789F9638D5E
:105668009BB233B3638D9BB2FF2B18D9FF25E16C36
:105678000023258500932A464FF0807389B2FFF7EF
:1056880061F9638D5B1B9BB2638594F841202368A5
:10569800222A1A6830D142F400421A60C4E7658DA4
:1056A8000023E16CADB225850093EAB24FF0007398
:1056B800E4E74021FFF70AFEB6E74B061FD555067B
:1056C8001DD501212046FFF79BF91021FFF750F95E
:1056D80094F841100F4A104B222918BF1346628DC7
:1056E80092B2FF2A03D9FF25E16C2585C2E7658DB3
:1056F800E16CADB22585D7E742F48042CDE7880654
:1057080092D5930690D52046FFF764FE8CE70220D9
:105718008DE700BF002000800024008073B590F85A
:1057280040300446012B78D0012380F84030CB0666
:1057380012D5D60610D5036810222021DA61436CF1
:1057480043F004034364FFF713F9FFF7ECF8002074
:1057580084F8400002B070BD0D0641D550063FD513
:105768002668336823F040033360638D9BB25BB3D4
:105778007168638DC1F309019BB2FF2B18D9FF250E
:105788004FF080732585002220460092EAB2FFF789
:10579800D9F8638D5B1B9BB2638594F84130222B4B
:1057A80033680CBF43F4004343F480433360CEE7CF
:1057B800658DE36AADB213F5803F258501D0E36AB4
:1057C800E1E74FF00073DEE773689A0103D42046DF
:1057D800FFF795FCBBE740212046FFF777FDB6E7CA
:1057E8004B0612D5560610D5638D9BB2002BF2D10D
:1057F80023685A689501AAD4E26A12F5803FE6D177
:105808005A6842F480425A60A1E788069FD59306F9
:105818009DD52046FFF7DEFD99E702209AE7036849
:1058280099691A6810B4CC0508D5140606D5446CD5
:1058380044F0010444644FF48074DC614C0508D5DD
:10584800140606D5446C44F0080444644FF480649C
:10585800DC61890508D5120606D5426C42F00202C1
:1058680042644FF40072DA61416C11F00B0F03D0FF
:105878005DF8044BFFF72ABD5DF8044B7047000044
:105888002DE9F0410568202204460E46D5F800802F
:10589800C76A90F84130EA61213B092B0CD8DFE850
:1058A80003F0058D0B0B0B0B0B93058D48F20101D3
:1058B800FFF7A6F8212323636B68204643F40043CF
:1058C8006B606B6823F0FF7323F48B3323F4FF734F
:1058D80023F001036B60FFF726F818F4804F79D0A6
:1058E8002B6823F480432B60A36B2BB31B68614A9E
:1058F80093421ED0183293421BD01832934218D0CC
:105908001832934215D01832934212D0183293426B
:105918000FD0183293420CD01832934209D002F5B6
:105928005672934205D01832934202D018329342ED
:10593800FFD05B689BB2638572070FD5636A26F058
:1059480004066A6A1A70636A01336362238D2BB195
:10595800013B2385638D013B9BB26385638D9BB2BD
:105968001BB1636C43F004036364F30611D518F0AC
:10597800100F0ED0638D9BB2002B45D194F84130A7
:10598800282B30D1B7F1007F2DD131462046FFF7C3
:1059980053FC002384F84230656C6363002D42D0C9
:1059A800616C2046FFF792FC94F84130282B4CD1CB
:1059B80031462046BDE8F041FFF73EBC48F20201FF
:1059C800FFF71EF8222376E748F20301FFF718F8DD
:1059D800002370E718F4004FAED02B6823F400437F
:1059E8002B60E36B81E794F841202368292A4FF064
:1059F8001002DA61CDD117F5803FCAD02046FEF7F4
:105A080092FFFFF79EFBC4E723681022DA61636CFC
:105A180043F00403636437F08073BAD1616C2046A5
:105A2800FFF754FCB5E7E36A13F5803F0FD0204633
:105A3800FFF787FB104B204684F84050E362202391
:105A480084F841302563FDF7B5FCBDE8F08194F892
:105A58004130204684F84050222B4FF0200384F830
:105A68004130256302D1FDF7BAFCEEE7FDF7CAFC29
:105A7800EBE700BF100002400000FFFF70B590F890
:105A8800403004460D46C66A012B00F0C080012351
:105A980080F840308B0607D5930605D5FFF7F0FE52
:105AA800002084F8400070BDEB0640F1A680D006C7
:105AB80040F1A380C2F3803102F4004252EA0103AC
:105AC80000F09780E36B3BB33AB31B68514A9342AB
